{
  "contractName": "MusiChain",
  "abi": [
    {
      "anonymous": false,
      "inputs": [
        {
          "indexed": false,
          "internalType": "bytes32",
          "name": "id",
          "type": "bytes32"
        }
      ],
      "name": "LogMusicID",
      "type": "event"
    },
    {
      "anonymous": false,
      "inputs": [
        {
          "indexed": false,
          "internalType": "bytes32",
          "name": "songID",
          "type": "bytes32"
        },
        {
          "indexed": false,
          "internalType": "address",
          "name": "authorized",
          "type": "address"
        }
      ],
      "name": "licenseEvent",
      "type": "event"
    },
    {
      "anonymous": false,
      "inputs": [
        {
          "indexed": false,
          "internalType": "bytes32",
          "name": "songID",
          "type": "bytes32"
        }
      ],
      "name": "registerEvent",
      "type": "event"
    },
    {
      "inputs": [
        {
          "internalType": "uint256",
          "name": "",
          "type": "uint256"
        }
      ],
      "name": "songs",
      "outputs": [
        {
          "internalType": "bool",
          "name": "registered",
          "type": "bool"
        },
        {
          "internalType": "bytes32",
          "name": "ID",
          "type": "bytes32"
        },
        {
          "internalType": "string",
          "name": "name",
          "type": "string"
        },
        {
          "internalType": "string",
          "name": "fileURL1",
          "type": "string"
        },
        {
          "internalType": "uint256",
          "name": "price",
          "type": "uint256"
        },
        {
          "internalType": "address",
          "name": "owner",
          "type": "address"
        }
      ],
      "stateMutability": "view",
      "type": "function",
      "constant": true
    },
    {
      "inputs": [
        {
          "internalType": "string",
          "name": "name",
          "type": "string"
        },
        {
          "internalType": "string",
          "name": "password",
          "type": "string"
        },
        {
          "internalType": "address",
          "name": "ad",
          "type": "address"
        }
      ],
      "name": "registerUser",
      "outputs": [
        {
          "internalType": "bool",
          "name": "",
          "type": "bool"
        }
      ],
      "stateMutability": "nonpayable",
      "type": "function"
    },
    {
      "inputs": [
        {
          "internalType": "bytes32",
          "name": "_bytes32",
          "type": "bytes32"
        }
      ],
      "name": "bytes32ToString",
      "outputs": [
        {
          "internalType": "string",
          "name": "",
          "type": "string"
        }
      ],
      "stateMutability": "pure",
      "type": "function",
      "constant": true
    },
    {
      "inputs": [
        {
          "internalType": "bytes32",
          "name": "songID",
          "type": "bytes32"
        },
        {
          "internalType": "address",
          "name": "ad",
          "type": "address"
        }
      ],
      "name": "buyLicense",
      "outputs": [],
      "stateMutability": "payable",
      "type": "function",
      "payable": true
    },
    {
      "inputs": [
        {
          "internalType": "string",
          "name": "name",
          "type": "string"
        },
        {
          "internalType": "string",
          "name": "URL1",
          "type": "string"
        },
        {
          "internalType": "uint256",
          "name": "price",
          "type": "uint256"
        },
        {
          "internalType": "address[]",
          "name": "sh",
          "type": "address[]"
        },
        {
          "internalType": "string",
          "name": "isrc",
          "type": "string"
        }
      ],
      "name": "addMusic",
      "outputs": [],
      "stateMutability": "nonpayable",
      "type": "function"
    },
    {
      "inputs": [],
      "name": "getSongList",
      "outputs": [
        {
          "internalType": "string[]",
          "name": "",
          "type": "string[]"
        }
      ],
      "stateMutability": "view",
      "type": "function",
      "constant": true
    },
    {
      "inputs": [
        {
          "internalType": "address",
          "name": "ad",
          "type": "address"
        }
      ],
      "name": "getPurchasedList",
      "outputs": [
        {
          "internalType": "bytes32[]",
          "name": "",
          "type": "bytes32[]"
        }
      ],
      "stateMutability": "view",
      "type": "function",
      "constant": true
    },
    {
      "inputs": [],
      "name": "getMySongs",
      "outputs": [
        {
          "internalType": "string[]",
          "name": "",
          "type": "string[]"
        }
      ],
      "stateMutability": "view",
      "type": "function",
      "constant": true
    },
    {
      "inputs": [
        {
          "internalType": "address",
          "name": "ad",
          "type": "address"
        }
      ],
      "name": "ifUserRegistered",
      "outputs": [
        {
          "internalType": "bool",
          "name": "",
          "type": "bool"
        }
      ],
      "stateMutability": "view",
      "type": "function",
      "constant": true
    }
  ],
  "bytecode": "0x60806040526000805534801561001457600080fd5b50612c8b806100246000396000f3fe6080604052600436106100865760003560e01c806388557b071161005957806388557b07146101725780639201de55146101af5780639a08afc4146101ec578063cbc2d90e14610217578063f43177e11461023357610086565b80631bdc89711461008b578063304cff30146100c857806333a572a21461010a5780636c8e32a014610135575b600080fd5b34801561009757600080fd5b506100b260048036038101906100ad91906119c6565b61025c565b6040516100bf9190611abb565b60405180910390f35b3480156100d457600080fd5b506100ef60048036038101906100ea9190611b13565b6102f6565b60405161010196959493929190611c18565b60405180910390f35b34801561011657600080fd5b5061011f61047f565b60405161012c9190611d93565b60405180910390f35b34801561014157600080fd5b5061015c600480360381019061015791906119c6565b6106c8565b6040516101699190611db5565b60405180910390f35b34801561017e57600080fd5b5061019960048036038101906101949190611f05565b610721565b6040516101a69190611db5565b60405180910390f35b3480156101bb57600080fd5b506101d660048036038101906101d19190611fbc565b610877565b6040516101e39190611fe9565b60405180910390f35b3480156101f857600080fd5b50610201610a12565b60405161020e9190611d93565b60405180910390f35b610231600480360381019061022c919061200b565b610b2b565b005b34801561023f57600080fd5b5061025a60048036038101906102559190612113565b610d1d565b005b6060600360008373ffffffffffffffffffffffffffffffffffffffff1673ffffffffffffffffffffffffffffffffffffffff1681526020019081526020016000206003018054806020026020016040519081016040528092919081815260200182805480156102ea57602002820191906000526020600020905b8154815260200190600101908083116102d6575b50505050509050919050565b6001818154811061030657600080fd5b90600052602060002090600902016000915090508060000160009054906101000a900460ff16908060010154908060020180546103429061222d565b80601f016020809104026020016040519081016040528092919081815260200182805461036e9061222d565b80156103bb5780601f10610390576101008083540402835291602001916103bb565b820191906000526020600020905b81548152906001019060200180831161039e57829003601f168201915b5050505050908060030180546103d09061222d565b80601f01602080910402602001604051908101604052809291908181526020018280546103fc9061222d565b80156104495780601f1061041e57610100808354040283529160200191610449565b820191906000526020600020905b81548152906001019060200180831161042c57829003601f168201915b5050505050908060040154908060050160009054906101000a900473ffffffffffffffffffffffffffffffffffffffff16905086565b6060600060016004600180549050610497919061228d565b6104a191906122cf565b67ffffffffffffffff8111156104ba576104b9611dda565b5b6040519080825280602002602001820160405280156104ed57816020015b60608152602001906001900390816104d85790505b5090506000805b6001805490508110156106bf5760006001828154811061051757610516612303565b5b906000526020600020906009020190508060020180546105369061222d565b80601f01602080910402602001604051908101604052809291908181526020018280546105629061222d565b80156105af5780601f10610584576101008083540402835291602001916105af565b820191906000526020600020905b81548152906001019060200180831161059257829003601f168201915b50505050508484815181106105c7576105c6612303565b5b60200260200101819052506105df8160040154611159565b846001856105ed91906122cf565b815181106105fe576105fd612303565b5b60200260200101819052506106368160050160009054906101000a900473ffffffffffffffffffffffffffffffffffffffff166112e1565b8460028561064491906122cf565b8151811061065557610654612303565b5b6020026020010181905250610672816001015460001c60206114a4565b8460038561068091906122cf565b8151811061069157610690612303565b5b60200260200101819052506004836106a991906122cf565b92505080806106b790612332565b9150506104f4565b50819250505090565b6000600360008373ffffffffffffffffffffffffffffffffffffffff1673ffffffffffffffffffffffffffffffffffffffff16815260200190815260200160002060020160009054906101000a900460ff169050919050565b60006001600360008473ffffffffffffffffffffffffffffffffffffffff1673ffffffffffffffffffffffffffffffffffffffff16815260200190815260200160002060020160006101000a81548160ff02191690831515021790555083600360008473ffffffffffffffffffffffffffffffffffffffff1673ffffffffffffffffffffffffffffffffffffffff16815260200190815260200160002060000190816107cd9190612526565b5082600360008473ffffffffffffffffffffffffffffffffffffffff1673ffffffffffffffffffffffffffffffffffffffff168152602001908152602001600020600101908161081d9190612526565b50600360008373ffffffffffffffffffffffffffffffffffffffff1673ffffffffffffffffffffffffffffffffffffffff16815260200190815260200160002060020160009054906101000a900460ff1690509392505050565b606060005b60208160ff161080156108ce5750600060f81b838260ff16602081106108a5576108a4612303565b5b1a60f81b7effffffffffffffffffffffffffffffffffffffffffffffffffffffffffffff191614155b156108e65780806108de90612605565b91505061087c565b60008160ff1667ffffffffffffffff81111561090557610904611dda565b5b6040519080825280601f01601f1916602001820160405280156109375781602001600182028036833780820191505090505b509050600091505b60208260ff161080156109915750600060f81b848360ff166020811061096857610967612303565b5b1a60f81b7effffffffffffffffffffffffffffffffffffffffffffffffffffffffffffff191614155b15610a0857838260ff16602081106109ac576109ab612303565b5b1a60f81b818360ff16815181106109c6576109c5612303565b5b60200101907effffffffffffffffffffffffffffffffffffffffffffffffffffffffffffff1916908160001a9053508180610a0090612605565b92505061093f565b8092505050919050565b6060600360003373ffffffffffffffffffffffffffffffffffffffff1673ffffffffffffffffffffffffffffffffffffffff168152602001908152602001600020600401805480602002602001604051908101604052809291908181526020016000905b82821015610b22578382906000526020600020018054610a959061222d565b80601f0160208091040260200160405190810160405280929190818152602001828054610ac19061222d565b8015610b0e5780601f10610ae357610100808354040283529160200191610b0e565b820191906000526020600020905b815481529060010190602001808311610af157829003601f168201915b505050505081526020019060010190610a76565b50505050905090565b60006002600084815260200190815260200160002060040154905080341015610b89576040517f08c379a0000000000000000000000000000000000000000000000000000000008152600401610b80906126a0565b60405180910390fd5b600360008373ffffffffffffffffffffffffffffffffffffffff1673ffffffffffffffffffffffffffffffffffffffff16815260200190815260200160002060030183908060018154018082558091505060019003906000526020600020016000909190919091505560016002600085815260200190815260200160002060080160003373ffffffffffffffffffffffffffffffffffffffff1673ffffffffffffffffffffffffffffffffffffffff16815260200190815260200160002060006101000a81548160ff02191690831515021790555060026000848152602001908152602001600020600601339080600181540180825580915050600190039060005260206000200160009091909190916101000a81548173ffffffffffffffffffffffffffffffffffffffff021916908373ffffffffffffffffffffffffffffffffffffffff160217905550610cdf83346116e0565b7f8ae598007ba71c05c33ddfa85fcb0c88d85e0476c58c69ed189b37a2129dd04a8333604051610d109291906126c0565b60405180910390a1505050565b60008082604051602001610d319190612725565b60405160208183030381529060405280519060200120905060005b600180549050811015610d9d578160018281548110610d6e57610d6d612303565b5b90600052602060002090600902016001015403610d8a57600192505b8080610d9590612332565b915050610d4c565b506000151582151514610de5576040517f08c379a0000000000000000000000000000000000000000000000000000000008152600401610ddc90612788565b60405180910390fd5b336002600083815260200190815260200160002060050160006101000a81548173ffffffffffffffffffffffffffffffffffffffff021916908373ffffffffffffffffffffffffffffffffffffffff16021790555060016002600083815260200190815260200160002060000160006101000a81548160ff02191690831515021790555080600260008381526020019081526020016000206001018190555086600260008381526020019081526020016000206002019081610ea79190612526565b5084600260008381526020019081526020016000206004018190555083600260008381526020019081526020016000206007019080519060200190610eed92919061185b565b5085600260008381526020019081526020016000206003019081610f119190612526565b50600360003373ffffffffffffffffffffffffffffffffffffffff1673ffffffffffffffffffffffffffffffffffffffff16815260200190815260200160002060040187908060018154018082558091505060019003906000526020600020016000909190919091509081610f869190612526565b506000805490506001600080828254610f9f91906122cf565b925050819055506001808160018154018082558091505003906000526020600020905050600060018281548110610fd957610fd8612303565b5b906000526020600020906009020190506002600084815260200190815260200160002060020181600201908161100f91906127d3565b506002600084815260200190815260200160002060050160009054906101000a900473ffffffffffffffffffffffffffffffffffffffff168160050160006101000a81548173ffffffffffffffffffffffffffffffffffffffff021916908373ffffffffffffffffffffffffffffffffffffffff1602179055506002600084815260200190815260200160002060010154816001018190555060026000848152602001908152602001600020600401548160040181905550600260008481526020019081526020016000206003018160030190816110ed91906127d3565b5060026000848152602001908152602001600020600701816007019080546111169291906118e5565b507fd66b22c89005793e3a9e651d23da80617cf0cc60d09c162eaece30f82875be0b8360405161114691906128bb565b60405180910390a1505050505050505050565b6060600082036111a0576040518060400160405280600181526020017f300000000000000000000000000000000000000000000000000000000000000081525090506112dc565b600082905060005b600082146111d25780806111bb90612332565b915050600a826111cb9190612905565b91506111a8565b60008167ffffffffffffffff8111156111ee576111ed611dda565b5b6040519080825280601f01601f1916602001820160405280156112205781602001600182028036833780820191505090505b50905060008290505b600086146112d45760018161123e9190612936565b90506000600a80886112509190612905565b61125a919061228d565b876112659190612936565b6030611271919061296a565b905060008160f81b90508084848151811061128f5761128e612303565b5b60200101907effffffffffffffffffffffffffffffffffffffffffffffffffffffffffffff1916908160001a905350600a886112cb9190612905565b97505050611229565b819450505050505b919050565b60606000602867ffffffffffffffff811115611300576112ff611dda565b5b6040519080825280601f01601f1916602001820160405280156113325781602001600182028036833780820191505090505b50905060005b601481101561149a5760008160136113509190612936565b600861135c919061228d565b60026113689190612ad2565b8573ffffffffffffffffffffffffffffffffffffffff166113899190612905565b60f81b9050600060108260f81c6113a09190612b1d565b60f81b905060008160f81c60106113b79190612b4e565b8360f81c6113c59190612b8b565b60f81b90506113d382611815565b858560026113e1919061228d565b815181106113f2576113f1612303565b5b60200101907effffffffffffffffffffffffffffffffffffffffffffffffffffffffffffff1916908160001a90535061142a81611815565b85600186600261143a919061228d565b61144491906122cf565b8151811061145557611454612303565b5b60200101907effffffffffffffffffffffffffffffffffffffffffffffffffffffffffffff1916908160001a905350505050808061149290612332565b915050611338565b5080915050919050565b6060600060028360026114b7919061228d565b6114c191906122cf565b67ffffffffffffffff8111156114da576114d9611dda565b5b6040519080825280601f01601f19166020018201604052801561150c5781602001600182028036833780820191505090505b5090507f30000000000000000000000000000000000000000000000000000000000000008160008151811061154457611543612303565b5b60200101907effffffffffffffffffffffffffffffffffffffffffffffffffffffffffffff1916908160001a9053507f7800000000000000000000000000000000000000000000000000000000000000816001815181106115a8576115a7612303565b5b60200101907effffffffffffffffffffffffffffffffffffffffffffffffffffffffffffff1916908160001a905350600060018460026115e8919061228d565b6115f291906122cf565b90505b6001811115611692577f3031323334353637383961626364656600000000000000000000000000000000600f86166010811061163457611633612303565b5b1a60f81b82828151811061164b5761164a612303565b5b60200101907effffffffffffffffffffffffffffffffffffffffffffffffffffffffffffff1916908160001a905350600485901c94508061168b90612bc0565b90506115f5565b50600084146116d6576040517f08c379a00000000000000000000000000000000000000000000000000000000081526004016116cd90612c35565b60405180910390fd5b8091505092915050565b60006002600084815260200190815260200160002060050160009054906101000a900473ffffffffffffffffffffffffffffffffffffffff16905060005b600260008581526020019081526020016000206007018054905081101561180f5760026000858152602001908152602001600020600701818154811061176757611766612303565b5b9060005260206000200160009054906101000a900473ffffffffffffffffffffffffffffffffffffffff1673ffffffffffffffffffffffffffffffffffffffff166108fc6002600087815260200190815260200160002060070180549050856117d09190612905565b9081150290604051600060405180830381858888f193505050501580156117fb573d6000803e3d6000fd5b50808061180790612332565b91505061171e565b50505050565b6000600a8260f81c60ff1610156118405760308260f81c611836919061296a565b60f81b9050611856565b60578260f81c611850919061296a565b60f81b90505b919050565b8280548282559060005260206000209081019282156118d4579160200282015b828111156118d35782518260006101000a81548173ffffffffffffffffffffffffffffffffffffffff021916908373ffffffffffffffffffffffffffffffffffffffff1602179055509160200191906001019061187b565b5b5090506118e19190611937565b5090565b8280548282559060005260206000209081019282156119265760005260206000209182015b8281111561192557825482559160010191906001019061190a565b5b5090506119339190611937565b5090565b5b80821115611950576000816000905550600101611938565b5090565b6000604051905090565b600080fd5b600080fd5b600073ffffffffffffffffffffffffffffffffffffffff82169050919050565b600061199382611968565b9050919050565b6119a381611988565b81146119ae57600080fd5b50565b6000813590506119c08161199a565b92915050565b6000602082840312156119dc576119db61195e565b5b60006119ea848285016119b1565b91505092915050565b600081519050919050565b600082825260208201905092915050565b6000819050602082019050919050565b6000819050919050565b611a3281611a1f565b82525050565b6000611a448383611a29565b60208301905092915050565b6000602082019050919050565b6000611a68826119f3565b611a7281856119fe565b9350611a7d83611a0f565b8060005b83811015611aae578151611a958882611a38565b9750611aa083611a50565b925050600181019050611a81565b5085935050505092915050565b60006020820190508181036000830152611ad58184611a5d565b905092915050565b6000819050919050565b611af081611add565b8114611afb57600080fd5b50565b600081359050611b0d81611ae7565b92915050565b600060208284031215611b2957611b2861195e565b5b6000611b3784828501611afe565b91505092915050565b60008115159050919050565b611b5581611b40565b82525050565b611b6481611a1f565b82525050565b600081519050919050565b600082825260208201905092915050565b60005b83811015611ba4578082015181840152602081019050611b89565b60008484015250505050565b6000601f19601f8301169050919050565b6000611bcc82611b6a565b611bd68185611b75565b9350611be6818560208601611b86565b611bef81611bb0565b840191505092915050565b611c0381611add565b82525050565b611c1281611988565b82525050565b600060c082019050611c2d6000830189611b4c565b611c3a6020830188611b5b565b8181036040830152611c4c8187611bc1565b90508181036060830152611c608186611bc1565b9050611c6f6080830185611bfa565b611c7c60a0830184611c09565b979650505050505050565b600081519050919050565b600082825260208201905092915050565b6000819050602082019050919050565b600082825260208201905092915050565b6000611ccf82611b6a565b611cd98185611cb3565b9350611ce9818560208601611b86565b611cf281611bb0565b840191505092915050565b6000611d098383611cc4565b905092915050565b6000602082019050919050565b6000611d2982611c87565b611d338185611c92565b935083602082028501611d4585611ca3565b8060005b85811015611d815784840389528151611d628582611cfd565b9450611d6d83611d11565b925060208a01995050600181019050611d49565b50829750879550505050505092915050565b60006020820190508181036000830152611dad8184611d1e565b905092915050565b6000602082019050611dca6000830184611b4c565b92915050565b600080fd5b600080fd5b7f4e487b7100000000000000000000000000000000000000000000000000000000600052604160045260246000fd5b611e1282611bb0565b810181811067ffffffffffffffff82111715611e3157611e30611dda565b5b80604052505050565b6000611e44611954565b9050611e508282611e09565b919050565b600067ffffffffffffffff821115611e7057611e6f611dda565b5b611e7982611bb0565b9050602081019050919050565b82818337600083830152505050565b6000611ea8611ea384611e55565b611e3a565b905082815260208101848484011115611ec457611ec3611dd5565b5b611ecf848285611e86565b509392505050565b600082601f830112611eec57611eeb611dd0565b5b8135611efc848260208601611e95565b91505092915050565b600080600060608486031215611f1e57611f1d61195e565b5b600084013567ffffffffffffffff811115611f3c57611f3b611963565b5b611f4886828701611ed7565b935050602084013567ffffffffffffffff811115611f6957611f68611963565b5b611f7586828701611ed7565b9250506040611f86868287016119b1565b9150509250925092565b611f9981611a1f565b8114611fa457600080fd5b50565b600081359050611fb681611f90565b92915050565b600060208284031215611fd257611fd161195e565b5b6000611fe084828501611fa7565b91505092915050565b600060208201905081810360008301526120038184611bc1565b905092915050565b600080604083850312156120225761202161195e565b5b600061203085828601611fa7565b9250506020612041858286016119b1565b9150509250929050565b600067ffffffffffffffff82111561206657612065611dda565b5b602082029050602081019050919050565b600080fd5b600061208f61208a8461204b565b611e3a565b905080838252602082019050602084028301858111156120b2576120b1612077565b5b835b818110156120db57806120c788826119b1565b8452602084019350506020810190506120b4565b5050509392505050565b600082601f8301126120fa576120f9611dd0565b5b813561210a84826020860161207c565b91505092915050565b600080600080600060a0868803121561212f5761212e61195e565b5b600086013567ffffffffffffffff81111561214d5761214c611963565b5b61215988828901611ed7565b955050602086013567ffffffffffffffff81111561217a57612179611963565b5b61218688828901611ed7565b945050604061219788828901611afe565b935050606086013567ffffffffffffffff8111156121b8576121b7611963565b5b6121c4888289016120e5565b925050608086013567ffffffffffffffff8111156121e5576121e4611963565b5b6121f188828901611ed7565b9150509295509295909350565b7f4e487b7100000000000000000000000000000000000000000000000000000000600052602260045260246000fd5b6000600282049050600182168061224557607f821691505b602082108103612258576122576121fe565b5b50919050565b7f4e487b7100000000000000000000000000000000000000000000000000000000600052601160045260246000fd5b600061229882611add565b91506122a383611add565b92508282026122b181611add565b915082820484148315176122c8576122c761225e565b5b5092915050565b60006122da82611add565b91506122e583611add565b92508282019050808211156122fd576122fc61225e565b5b92915050565b7f4e487b7100000000000000000000000000000000000000000000000000000000600052603260045260246000fd5b600061233d82611add565b91507fffffffffffffffffffffffffffffffffffffffffffffffffffffffffffffffff820361236f5761236e61225e565b5b600182019050919050565b60008190508160005260206000209050919050565b60006020601f8301049050919050565b600082821b905092915050565b6000600883026123dc7fffffffffffffffffffffffffffffffffffffffffffffffffffffffffffffffff8261239f565b6123e6868361239f565b95508019841693508086168417925050509392505050565b6000819050919050565b600061242361241e61241984611add565b6123fe565b611add565b9050919050565b6000819050919050565b61243d83612408565b6124516124498261242a565b8484546123ac565b825550505050565b600090565b612466612459565b612471818484612434565b505050565b5b818110156124955761248a60008261245e565b600181019050612477565b5050565b601f8211156124da576124ab8161237a565b6124b48461238f565b810160208510156124c3578190505b6124d76124cf8561238f565b830182612476565b50505b505050565b600082821c905092915050565b60006124fd600019846008026124df565b1980831691505092915050565b600061251683836124ec565b9150826002028217905092915050565b61252f82611b6a565b67ffffffffffffffff81111561254857612547611dda565b5b612552825461222d565b61255d828285612499565b600060209050601f831160018114612590576000841561257e578287015190505b612588858261250a565b8655506125f0565b601f19841661259e8661237a565b60005b828110156125c6578489015182556001820191506020850194506020810190506125a1565b868310156125e357848901516125df601f8916826124ec565b8355505b6001600288020188555050505b505050505050565b600060ff82169050919050565b6000612610826125f8565b915060ff82036126235761262261225e565b5b600182019050919050565b7f416d6f756e742073656e74206973206c657373207468616e207265717569726560008201527f6420616d6f756e7420666f722074686520736f6e670000000000000000000000602082015250565b600061268a603583611b75565b91506126958261262e565b604082019050919050565b600060208201905081810360008301526126b98161267d565b9050919050565b60006040820190506126d56000830185611b5b565b6126e26020830184611c09565b9392505050565b600081905092915050565b60006126ff82611b6a565b61270981856126e9565b9350612719818560208601611b86565b80840191505092915050565b600061273182846126f4565b915081905092915050565b7f536f6e6720616c72656164792070726573656e74000000000000000000000000600082015250565b6000612772601483611b75565b915061277d8261273c565b602082019050919050565b600060208201905081810360008301526127a181612765565b9050919050565b6000815490506127b78161222d565b9050919050565b60008190508160005260206000209050919050565b8181036127e15750506128b9565b6127ea826127a8565b67ffffffffffffffff81111561280357612802611dda565b5b61280d825461222d565b612818828285612499565b6000601f8311600181146128475760008415612835578287015490505b61283f858261250a565b8655506128b2565b601f198416612855876127be565b96506128608661237a565b60005b8281101561288857848901548255600182019150600185019450602081019050612863565b868310156128a557848901546128a1601f8916826124ec565b8355505b6001600288020188555050505b5050505050505b565b60006020820190506128d06000830184611b5b565b92915050565b7f4e487b7100000000000000000000000000000000000000000000000000000000600052601260045260246000fd5b600061291082611add565b915061291b83611add565b92508261292b5761292a6128d6565b5b828204905092915050565b600061294182611add565b915061294c83611add565b92508282039050818111156129645761296361225e565b5b92915050565b6000612975826125f8565b9150612980836125f8565b9250828201905060ff8111156129995761299861225e565b5b92915050565b60008160011c9050919050565b6000808291508390505b60018511156129f6578086048111156129d2576129d161225e565b5b60018516156129e15780820291505b80810290506129ef8561299f565b94506129b6565b94509492505050565b600082612a0f5760019050612acb565b81612a1d5760009050612acb565b8160018114612a335760028114612a3d57612a6c565b6001915050612acb565b60ff841115612a4f57612a4e61225e565b5b8360020a915084821115612a6657612a6561225e565b5b50612acb565b5060208310610133831016604e8410600b8410161715612aa15782820a905083811115612a9c57612a9b61225e565b5b612acb565b612aae84848460016129ac565b92509050818404811115612ac557612ac461225e565b5b81810290505b9392505050565b6000612add82611add565b9150612ae883611add565b9250612b157fffffffffffffffffffffffffffffffffffffffffffffffffffffffffffffffff84846129ff565b905092915050565b6000612b28826125f8565b9150612b33836125f8565b925082612b4357612b426128d6565b5b828204905092915050565b6000612b59826125f8565b9150612b64836125f8565b9250828202612b72816125f8565b9150808214612b8457612b8361225e565b5b5092915050565b6000612b96826125f8565b9150612ba1836125f8565b9250828203905060ff811115612bba57612bb961225e565b5b92915050565b6000612bcb82611add565b915060008203612bde57612bdd61225e565b5b600182039050919050565b7f537472696e67733a20686578206c656e67746820696e73756666696369656e74600082015250565b6000612c1f602083611b75565b9150612c2a82612be9565b602082019050919050565b60006020820190508181036000830152612c4e81612c12565b905091905056fea2646970667358221220d22323d38d3fbcba185bd396bd3d8c9391b245677e8bbc7cddf78a188e49a56b64736f6c63430008120033",
  "immutableReferences": {},
  "source": "pragma solidity ^0.8.18;\r\nimport \"@openzeppelin/contracts/token/ERC721/ERC721.sol\";\r\ncontract MusiChain{\r\n  uint idxz = 0;\r\n   Music[] public songs;\r\n   mapping(bytes32 => Music) songInfo;\r\n   mapping(address => User) userInfo;\r\n\r\n   event registerEvent(bytes32 songID);\r\n   event licenseEvent(bytes32 songID, address authorized);\r\n   event LogMusicID(bytes32 id);\r\n\r\n\r\n\r\n   struct Music {\r\n    bool registered;\r\n    bytes32 ID;\r\n    string name;\r\n    string fileURL1;\r\n    uint price;\r\n    address owner;\r\n    address[] licenseHoldersList;\r\n    address[] shareholders;\r\n    mapping(address => bool) licenseHolders;\r\n  }\r\n\r\n\r\n    struct User{\r\n      string name;\r\n      string password;\r\n      bool registered;\r\n      bytes32[] purchasedSongs;\r\n      string[] uploadedSongs;\r\n    }\r\n\r\n  function registerUser(string memory name, string memory password,address ad) public returns (bool) {\r\n    userInfo[ad].registered = true;\r\n    userInfo[ad].name = name;\r\n    userInfo[ad].password = password;\r\n    return userInfo[ad].registered;\r\n\r\n  }\r\n  function bytes32ToString(bytes32 _bytes32) public pure returns (string memory) {\r\n        uint8 i = 0;\r\n        while(i < 32 && _bytes32[i] != 0) {\r\n            i++;\r\n        }\r\n        bytes memory bytesArray = new bytes(i);\r\n        for (i = 0; i < 32 && _bytes32[i] != 0; i++) {\r\n            bytesArray[i] = _bytes32[i];\r\n        }\r\n        return string(bytesArray);\r\n    }\r\n  function uint2str(uint _i) internal pure returns (string memory _uintAsString) {\r\n        if (_i == 0) {\r\n            return \"0\";\r\n        }\r\n        uint j = _i;\r\n        uint len;\r\n        while (j != 0) {\r\n            len++;\r\n            j /= 10;\r\n        }\r\n        bytes memory bstr = new bytes(len);\r\n        uint k = len;\r\n        while (_i != 0) {\r\n            k = k-1;\r\n            uint8 temp = (48 + uint8(_i - _i / 10 * 10));\r\n            bytes1 b1 = bytes1(temp);\r\n            bstr[k] = b1;\r\n            _i /= 10;\r\n        }\r\n        return string(bstr);\r\n    }\r\n\r\n  function toAsciiString(address x) internal pure returns (string memory) {\r\n    bytes memory s = new bytes(40);\r\n    for (uint i = 0; i < 20; i++) {\r\n        bytes1 b = bytes1(uint8(uint(uint160(x)) / (2**(8*(19 - i)))));\r\n        bytes1 hi = bytes1(uint8(b) / 16);\r\n        bytes1 lo = bytes1(uint8(b) - 16 * uint8(hi));\r\n        s[2*i] = char(hi);\r\n        s[2*i+1] = char(lo);            \r\n    }\r\n    return string(s);\r\n}\r\n\r\nfunction char(bytes1 b) internal pure returns (bytes1 c) {\r\n    if (uint8(b) < 10) return bytes1(uint8(b) + 0x30);\r\n    else return bytes1(uint8(b) + 0x57);\r\n}\r\n\r\n\r\n  function buyLicense(bytes32 songID, address ad) public payable {\r\n    uint price = songInfo[songID].price;\r\n    require(msg.value >= price,\"Amount sent is less than required amount for the song\");\r\n    userInfo[ad].purchasedSongs.push(songID);\r\n\r\n    songInfo[songID].licenseHolders[msg.sender] = true;\r\n    songInfo[songID].licenseHoldersList.push(msg.sender);\r\n    // pay the coopyright holder\r\n    payRoyalty(songID, msg.value);\r\n\r\n    emit licenseEvent(songID, msg.sender);\r\n  }\r\n\r\n\r\n  function payRoyalty(bytes32 songID, uint amount) private {\r\n    address owner = songInfo[songID].owner;\r\n    for(uint i = 0; i < songInfo[songID].shareholders.length; i++){\r\n    payable(songInfo[songID].shareholders[i]).transfer(amount/songInfo[songID].shareholders.length);\r\n    }\r\n    \r\n  }\r\n\r\n\r\n  function addMusic(string memory name, string  memory URL1,uint price, address[] memory sh, string memory isrc) public {\r\n    bool found = false;\r\n    bytes32 songID = keccak256(abi.encodePacked(isrc));\r\n    for(uint i=0;i<songs.length;i++){\r\n      if(songs[i].ID == songID){\r\n        found = true;\r\n      }\r\n    }\r\n    require(found == false,\"Song already present\");\r\n    songInfo[songID].owner = msg.sender;\r\n    songInfo[songID].registered = true;\r\n    songInfo[songID].ID = songID;\r\n    songInfo[songID].name = name;\r\n    songInfo[songID].price = price;\r\n    songInfo[songID].shareholders = sh;\r\n    songInfo[songID].fileURL1 = URL1;\r\n    userInfo[msg.sender].uploadedSongs.push(name);\r\n    uint256 idx = idxz;\r\n    idxz+=1;\r\n    songs.push();\r\n    Music storage d = songs[idx];\r\n    d.name = songInfo[songID].name;\r\n    d.owner = songInfo[songID].owner;\r\n    d.ID =songInfo[songID].ID;\r\n    d.price = songInfo[songID].price;\r\n    d.fileURL1 = songInfo[songID].fileURL1;\r\n    d. shareholders = songInfo[songID].shareholders;\r\n    emit registerEvent(songID);\r\n  }\r\n\r\n  function getSongList() public view returns (string[] memory) {\r\n    string[] memory response = new string[](songs.length*4 +1 );\r\n    uint idx = 0;\r\n    for (uint i = 0; i < songs.length; i++) {\r\n      Music storage song = songs[i];\r\n      response[idx]= song.name;\r\n      response[idx+1]= uint2str(song.price);\r\n      response[idx+2]= toAsciiString(song.owner);\r\n      response[idx+3]=  Strings.toHexString(uint256(song.ID), 32);\r\n\r\n      idx+=4;\r\n\r\n    }\r\n\r\n    return response;\r\n  }\r\n\r\n  function getPurchasedList(address ad) public view returns (bytes32[] memory){\r\n    return userInfo[ad].purchasedSongs;\r\n  }\r\n  function getMySongs() public view returns (string[] memory){\r\n    return userInfo[msg.sender].uploadedSongs;\r\n  }\r\n  function ifUserRegistered(address ad) public view returns (bool){\r\n    return userInfo[ad].registered;\r\n  }\r\n}\r\n",
  "sourcePath": "C:\\Users\\Aryan\\Desktop\\Truffle_Ganache\\contracts\\MusiChain.sol",
  "compiler": {
    "name": "solc",
    "version": "0.8.18+commit.87f61d96.Emscripten.clang"
  },
  "schemaVersion": "3.4.13",
  "updatedAt": "2023-05-23T06:17:50.301Z",
  "networkType": "ethereum",
  "devdoc": {
    "kind": "dev",
    "methods": {},
    "version": 1
  },
  "userdoc": {
    "kind": "user",
    "methods": {},
    "version": 1
  }
}