{
  "contractName": "MusiChain",
  "abi": [
    {
      "anonymous": false,
      "inputs": [
        {
          "indexed": false,
          "internalType": "bytes32",
          "name": "id",
          "type": "bytes32"
        }
      ],
      "name": "LogMusicID",
      "type": "event"
    },
    {
      "anonymous": false,
      "inputs": [
        {
          "indexed": false,
          "internalType": "bytes32",
          "name": "songID",
          "type": "bytes32"
        },
        {
          "indexed": false,
          "internalType": "address",
          "name": "authorized",
          "type": "address"
        }
      ],
      "name": "licenseEvent",
      "type": "event"
    },
    {
      "anonymous": false,
      "inputs": [
        {
          "indexed": false,
          "internalType": "bytes32",
          "name": "songID",
          "type": "bytes32"
        }
      ],
      "name": "registerEvent",
      "type": "event"
    },
    {
      "inputs": [
        {
          "internalType": "uint256",
          "name": "",
          "type": "uint256"
        }
      ],
      "name": "songs",
      "outputs": [
        {
          "internalType": "bool",
          "name": "registered",
          "type": "bool"
        },
        {
          "internalType": "bytes32",
          "name": "ID",
          "type": "bytes32"
        },
        {
          "internalType": "string",
          "name": "name",
          "type": "string"
        },
        {
          "internalType": "string",
          "name": "fileURL1",
          "type": "string"
        },
        {
          "internalType": "uint256",
          "name": "price",
          "type": "uint256"
        },
        {
          "internalType": "address",
          "name": "owner",
          "type": "address"
        }
      ],
      "stateMutability": "view",
      "type": "function",
      "constant": true
    },
    {
      "inputs": [
        {
          "internalType": "string",
          "name": "name",
          "type": "string"
        },
        {
          "internalType": "string",
          "name": "password",
          "type": "string"
        }
      ],
      "name": "registerUser",
      "outputs": [],
      "stateMutability": "nonpayable",
      "type": "function"
    },
    {
      "inputs": [
        {
          "internalType": "bytes32",
          "name": "songID",
          "type": "bytes32"
        }
      ],
      "name": "buyLicense",
      "outputs": [],
      "stateMutability": "payable",
      "type": "function",
      "payable": true
    },
    {
      "inputs": [
        {
          "internalType": "string",
          "name": "name",
          "type": "string"
        },
        {
          "internalType": "string",
          "name": "URL1",
          "type": "string"
        },
        {
          "internalType": "uint256",
          "name": "price",
          "type": "uint256"
        }
      ],
      "name": "addMusic",
      "outputs": [],
      "stateMutability": "nonpayable",
      "type": "function"
    },
    {
      "inputs": [],
      "name": "getSongList",
      "outputs": [
        {
          "internalType": "string[]",
          "name": "",
          "type": "string[]"
        }
      ],
      "stateMutability": "view",
      "type": "function",
      "constant": true
    },
    {
      "inputs": [],
      "name": "getPurchasedList",
      "outputs": [
        {
          "internalType": "bytes32[]",
          "name": "",
          "type": "bytes32[]"
        }
      ],
      "stateMutability": "view",
      "type": "function",
      "constant": true
    },
    {
      "inputs": [],
      "name": "getMySongs",
      "outputs": [
        {
          "internalType": "string[]",
          "name": "",
          "type": "string[]"
        }
      ],
      "stateMutability": "view",
      "type": "function",
      "constant": true
    }
  ],
  "bytecode": "0x608060405234801561001057600080fd5b50612222806100206000396000f3fe6080604052600436106100705760003560e01c80634eb5302b1161004e5780634eb5302b1461010b578063724fda67146101365780639a08afc414610152578063cf95aed61461017d57610070565b80631d2e4afd14610075578063304cff301461009e57806333a572a2146100e0575b600080fd5b34801561008157600080fd5b5061009c60048036038101906100979190611314565b6101a6565b005b3480156100aa57600080fd5b506100c560048036038101906100c091906113c2565b6102a5565b6040516100d7969594939291906114f2565b60405180910390f35b3480156100ec57600080fd5b506100f561042e565b604051610102919061166d565b60405180910390f35b34801561011757600080fd5b5061012061063a565b60405161012d919061174d565b60405180910390f35b610150600480360381019061014b919061179b565b6106d2565b005b34801561015e57600080fd5b50610167610958565b604051610174919061166d565b60405180910390f35b34801561018957600080fd5b506101a4600480360381019061019f91906117c8565b610a71565b005b6001600260003373ffffffffffffffffffffffffffffffffffffffff1673ffffffffffffffffffffffffffffffffffffffff16815260200190815260200160002060020160006101000a81548160ff02191690831515021790555081600260003373ffffffffffffffffffffffffffffffffffffffff1673ffffffffffffffffffffffffffffffffffffffff16815260200190815260200160002060000190816102509190611a5f565b5080600260003373ffffffffffffffffffffffffffffffffffffffff1673ffffffffffffffffffffffffffffffffffffffff16815260200190815260200160002060010190816102a09190611a5f565b505050565b600081815481106102b557600080fd5b90600052602060002090600802016000915090508060000160009054906101000a900460ff16908060010154908060020180546102f190611882565b80601f016020809104026020016040519081016040528092919081815260200182805461031d90611882565b801561036a5780601f1061033f5761010080835404028352916020019161036a565b820191906000526020600020905b81548152906001019060200180831161034d57829003601f168201915b50505050509080600301805461037f90611882565b80601f01602080910402602001604051908101604052809291908181526020018280546103ab90611882565b80156103f85780601f106103cd576101008083540402835291602001916103f8565b820191906000526020600020905b8154815290600101906020018083116103db57829003601f168201915b5050505050908060040154908060050160009054906101000a900473ffffffffffffffffffffffffffffffffffffffff16905086565b60606000600160036000805490506104469190611b60565b6104509190611ba2565b67ffffffffffffffff811115610469576104686111e9565b5b60405190808252806020026020018201604052801561049c57816020015b60608152602001906001900390816104875790505b5090506000805b6000805490508110156106315760008082815481106104c5576104c4611bd6565b5b906000526020600020906008020190508060020180546104e490611882565b80601f016020809104026020016040519081016040528092919081815260200182805461051090611882565b801561055d5780601f106105325761010080835404028352916020019161055d565b820191906000526020600020905b81548152906001019060200180831161054057829003601f168201915b505050505084848151811061057557610574611bd6565b5b602002602001018190525061058d8160040154610da2565b8460018561059b9190611ba2565b815181106105ac576105ab611bd6565b5b60200260200101819052506105e48160050160009054906101000a900473ffffffffffffffffffffffffffffffffffffffff16610f2a565b846002856105f29190611ba2565b8151811061060357610602611bd6565b5b602002602001018190525060038361061b9190611ba2565b925050808061062990611c05565b9150506104a3565b50819250505090565b6060600260003373ffffffffffffffffffffffffffffffffffffffff1673ffffffffffffffffffffffffffffffffffffffff1681526020019081526020016000206003018054806020026020016040519081016040528092919081815260200182805480156106c857602002820191906000526020600020905b8154815260200190600101908083116106b4575b5050505050905090565b60006001600083815260200190815260200160002060040154905060011515600260003373ffffffffffffffffffffffffffffffffffffffff1673ffffffffffffffffffffffffffffffffffffffff16815260200190815260200160002060020160009054906101000a900460ff16151514610783576040517f08c379a000000000000000000000000000000000000000000000000000000000815260040161077a90611c99565b60405180910390fd5b803410156107c6576040517f08c379a00000000000000000000000000000000000000000000000000000000081526004016107bd90611d2b565b60405180910390fd5b600260003373ffffffffffffffffffffffffffffffffffffffff1673ffffffffffffffffffffffffffffffffffffffff168152602001908152602001600020600301829080600181540180825580915050600190039060005260206000200160009091909190915055600180600084815260200190815260200160002060070160003373ffffffffffffffffffffffffffffffffffffffff1673ffffffffffffffffffffffffffffffffffffffff16815260200190815260200160002060006101000a81548160ff02191690831515021790555060016000838152602001908152602001600020600601339080600181540180825580915050600190039060005260206000200160009091909190916101000a81548173ffffffffffffffffffffffffffffffffffffffff021916908373ffffffffffffffffffffffffffffffffffffffff16021790555061091b82346110ed565b7f8ae598007ba71c05c33ddfa85fcb0c88d85e0476c58c69ed189b37a2129dd04a823360405161094c929190611d4b565b60405180910390a15050565b6060600260003373ffffffffffffffffffffffffffffffffffffffff1673ffffffffffffffffffffffffffffffffffffffff168152602001908152602001600020600401805480602002602001604051908101604052809291908181526020016000905b82821015610a685783829060005260206000200180546109db90611882565b80601f0160208091040260200160405190810160405280929190818152602001828054610a0790611882565b8015610a545780601f10610a2957610100808354040283529160200191610a54565b820191906000526020600020905b815481529060010190602001808311610a3757829003601f168201915b5050505050815260200190600101906109bc565b50505050905090565b600083604051602001610a849190611db0565b604051602081830303815290604052805190602001209050336001600083815260200190815260200160002060050160006101000a81548173ffffffffffffffffffffffffffffffffffffffff021916908373ffffffffffffffffffffffffffffffffffffffff160217905550600180600083815260200190815260200160002060000160006101000a81548160ff02191690831515021790555080600160008381526020019081526020016000206001018190555083600160008381526020019081526020016000206002019081610b5d9190611a5f565b5081600160008381526020019081526020016000206004018190555082600160008381526020019081526020016000206003019081610b9c9190611a5f565b50600260003373ffffffffffffffffffffffffffffffffffffffff1673ffffffffffffffffffffffffffffffffffffffff16815260200190815260200160002060040184908060018154018082558091505060019003906000526020600020016000909190919091509081610c119190611a5f565b506000808054905090506000600181600181540180825580915050039060005260206000209050506000808281548110610c4e57610c4d611bd6565b5b9060005260206000209060080201905060016000848152602001908152602001600020600201816002019081610c849190611df2565b506001600084815260200190815260200160002060050160009054906101000a900473ffffffffffffffffffffffffffffffffffffffff168160050160006101000a81548173ffffffffffffffffffffffffffffffffffffffff021916908373ffffffffffffffffffffffffffffffffffffffff160217905550600160008481526020019081526020016000206001015481600101819055506001600084815260200190815260200160002060040154816004018190555060016000848152602001908152602001600020600301816003019081610d629190611df2565b507fd66b22c89005793e3a9e651d23da80617cf0cc60d09c162eaece30f82875be0b83604051610d929190611eda565b60405180910390a1505050505050565b606060008203610de9576040518060400160405280600181526020017f30000000000000000000000000000000000000000000000000000000000000008152509050610f25565b600082905060005b60008214610e1b578080610e0490611c05565b915050600a82610e149190611f24565b9150610df1565b60008167ffffffffffffffff811115610e3757610e366111e9565b5b6040519080825280601f01601f191660200182016040528015610e695781602001600182028036833780820191505090505b50905060008290505b60008614610f1d57600181610e879190611f55565b90506000600a8088610e999190611f24565b610ea39190611b60565b87610eae9190611f55565b6030610eba9190611f96565b905060008160f81b905080848481518110610ed857610ed7611bd6565b5b60200101907effffffffffffffffffffffffffffffffffffffffffffffffffffffffffffff1916908160001a905350600a88610f149190611f24565b97505050610e72565b819450505050505b919050565b60606000602867ffffffffffffffff811115610f4957610f486111e9565b5b6040519080825280601f01601f191660200182016040528015610f7b5781602001600182028036833780820191505090505b50905060005b60148110156110e3576000816013610f999190611f55565b6008610fa59190611b60565b6002610fb191906120fe565b8573ffffffffffffffffffffffffffffffffffffffff16610fd29190611f24565b60f81b9050600060108260f81c610fe99190612149565b60f81b905060008160f81c6010611000919061217a565b8360f81c61100e91906121b7565b60f81b905061101c82611174565b8585600261102a9190611b60565b8151811061103b5761103a611bd6565b5b60200101907effffffffffffffffffffffffffffffffffffffffffffffffffffffffffffff1916908160001a90535061107381611174565b8560018660026110839190611b60565b61108d9190611ba2565b8151811061109e5761109d611bd6565b5b60200101907effffffffffffffffffffffffffffffffffffffffffffffffffffffffffffff1916908160001a90535050505080806110db90611c05565b915050610f81565b5080915050919050565b60006001600084815260200190815260200160002060050160009054906101000a900473ffffffffffffffffffffffffffffffffffffffff1690508073ffffffffffffffffffffffffffffffffffffffff166108fc839081150290604051600060405180830381858888f1935050505015801561116e573d6000803e3d6000fd5b50505050565b6000600a8260f81c60ff16101561119f5760308260f81c6111959190611f96565b60f81b90506111b5565b60578260f81c6111af9190611f96565b60f81b90505b919050565b6000604051905090565b600080fd5b600080fd5b600080fd5b600080fd5b6000601f19601f8301169050919050565b7f4e487b7100000000000000000000000000000000000000000000000000000000600052604160045260246000fd5b611221826111d8565b810181811067ffffffffffffffff821117156112405761123f6111e9565b5b80604052505050565b60006112536111ba565b905061125f8282611218565b919050565b600067ffffffffffffffff82111561127f5761127e6111e9565b5b611288826111d8565b9050602081019050919050565b82818337600083830152505050565b60006112b76112b284611264565b611249565b9050828152602081018484840111156112d3576112d26111d3565b5b6112de848285611295565b509392505050565b600082601f8301126112fb576112fa6111ce565b5b813561130b8482602086016112a4565b91505092915050565b6000806040838503121561132b5761132a6111c4565b5b600083013567ffffffffffffffff811115611349576113486111c9565b5b611355858286016112e6565b925050602083013567ffffffffffffffff811115611376576113756111c9565b5b611382858286016112e6565b9150509250929050565b6000819050919050565b61139f8161138c565b81146113aa57600080fd5b50565b6000813590506113bc81611396565b92915050565b6000602082840312156113d8576113d76111c4565b5b60006113e6848285016113ad565b91505092915050565b60008115159050919050565b611404816113ef565b82525050565b6000819050919050565b61141d8161140a565b82525050565b600081519050919050565b600082825260208201905092915050565b60005b8381101561145d578082015181840152602081019050611442565b60008484015250505050565b600061147482611423565b61147e818561142e565b935061148e81856020860161143f565b611497816111d8565b840191505092915050565b6114ab8161138c565b82525050565b600073ffffffffffffffffffffffffffffffffffffffff82169050919050565b60006114dc826114b1565b9050919050565b6114ec816114d1565b82525050565b600060c08201905061150760008301896113fb565b6115146020830188611414565b81810360408301526115268187611469565b9050818103606083015261153a8186611469565b905061154960808301856114a2565b61155660a08301846114e3565b979650505050505050565b600081519050919050565b600082825260208201905092915050565b6000819050602082019050919050565b600082825260208201905092915050565b60006115a982611423565b6115b3818561158d565b93506115c381856020860161143f565b6115cc816111d8565b840191505092915050565b60006115e3838361159e565b905092915050565b6000602082019050919050565b600061160382611561565b61160d818561156c565b93508360208202850161161f8561157d565b8060005b8581101561165b578484038952815161163c85826115d7565b9450611647836115eb565b925060208a01995050600181019050611623565b50829750879550505050505092915050565b6000602082019050818103600083015261168781846115f8565b905092915050565b600081519050919050565b600082825260208201905092915050565b6000819050602082019050919050565b6116c48161140a565b82525050565b60006116d683836116bb565b60208301905092915050565b6000602082019050919050565b60006116fa8261168f565b611704818561169a565b935061170f836116ab565b8060005b8381101561174057815161172788826116ca565b9750611732836116e2565b925050600181019050611713565b5085935050505092915050565b6000602082019050818103600083015261176781846116ef565b905092915050565b6117788161140a565b811461178357600080fd5b50565b6000813590506117958161176f565b92915050565b6000602082840312156117b1576117b06111c4565b5b60006117bf84828501611786565b91505092915050565b6000806000606084860312156117e1576117e06111c4565b5b600084013567ffffffffffffffff8111156117ff576117fe6111c9565b5b61180b868287016112e6565b935050602084013567ffffffffffffffff81111561182c5761182b6111c9565b5b611838868287016112e6565b9250506040611849868287016113ad565b9150509250925092565b7f4e487b7100000000000000000000000000000000000000000000000000000000600052602260045260246000fd5b6000600282049050600182168061189a57607f821691505b6020821081036118ad576118ac611853565b5b50919050565b60008190508160005260206000209050919050565b60006020601f8301049050919050565b600082821b905092915050565b6000600883026119157fffffffffffffffffffffffffffffffffffffffffffffffffffffffffffffffff826118d8565b61191f86836118d8565b95508019841693508086168417925050509392505050565b6000819050919050565b600061195c6119576119528461138c565b611937565b61138c565b9050919050565b6000819050919050565b61197683611941565b61198a61198282611963565b8484546118e5565b825550505050565b600090565b61199f611992565b6119aa81848461196d565b505050565b5b818110156119ce576119c3600082611997565b6001810190506119b0565b5050565b601f821115611a13576119e4816118b3565b6119ed846118c8565b810160208510156119fc578190505b611a10611a08856118c8565b8301826119af565b50505b505050565b600082821c905092915050565b6000611a3660001984600802611a18565b1980831691505092915050565b6000611a4f8383611a25565b9150826002028217905092915050565b611a6882611423565b67ffffffffffffffff811115611a8157611a806111e9565b5b611a8b8254611882565b611a968282856119d2565b600060209050601f831160018114611ac95760008415611ab7578287015190505b611ac18582611a43565b865550611b29565b601f198416611ad7866118b3565b60005b82811015611aff57848901518255600182019150602085019450602081019050611ada565b86831015611b1c5784890151611b18601f891682611a25565b8355505b6001600288020188555050505b505050505050565b7f4e487b7100000000000000000000000000000000000000000000000000000000600052601160045260246000fd5b6000611b6b8261138c565b9150611b768361138c565b9250828202611b848161138c565b91508282048414831517611b9b57611b9a611b31565b5b5092915050565b6000611bad8261138c565b9150611bb88361138c565b9250828201905080821115611bd057611bcf611b31565b5b92915050565b7f4e487b7100000000000000000000000000000000000000000000000000000000600052603260045260246000fd5b6000611c108261138c565b91507fffffffffffffffffffffffffffffffffffffffffffffffffffffffffffffffff8203611c4257611c41611b31565b5b600182019050919050565b7f55736572206973206e6f74207265676973746572656421000000000000000000600082015250565b6000611c8360178361142e565b9150611c8e82611c4d565b602082019050919050565b60006020820190508181036000830152611cb281611c76565b9050919050565b7f416d6f756e742073656e74206973206c657373207468616e207265717569726560008201527f6420616d6f756e7420666f722074686520736f6e670000000000000000000000602082015250565b6000611d1560358361142e565b9150611d2082611cb9565b604082019050919050565b60006020820190508181036000830152611d4481611d08565b9050919050565b6000604082019050611d606000830185611414565b611d6d60208301846114e3565b9392505050565b600081905092915050565b6000611d8a82611423565b611d948185611d74565b9350611da481856020860161143f565b80840191505092915050565b6000611dbc8284611d7f565b915081905092915050565b600081549050611dd681611882565b9050919050565b60008190508160005260206000209050919050565b818103611e00575050611ed8565b611e0982611dc7565b67ffffffffffffffff811115611e2257611e216111e9565b5b611e2c8254611882565b611e378282856119d2565b6000601f831160018114611e665760008415611e54578287015490505b611e5e8582611a43565b865550611ed1565b601f198416611e7487611ddd565b9650611e7f866118b3565b60005b82811015611ea757848901548255600182019150600185019450602081019050611e82565b86831015611ec45784890154611ec0601f891682611a25565b8355505b6001600288020188555050505b5050505050505b565b6000602082019050611eef6000830184611414565b92915050565b7f4e487b7100000000000000000000000000000000000000000000000000000000600052601260045260246000fd5b6000611f2f8261138c565b9150611f3a8361138c565b925082611f4a57611f49611ef5565b5b828204905092915050565b6000611f608261138c565b9150611f6b8361138c565b9250828203905081811115611f8357611f82611b31565b5b92915050565b600060ff82169050919050565b6000611fa182611f89565b9150611fac83611f89565b9250828201905060ff811115611fc557611fc4611b31565b5b92915050565b60008160011c9050919050565b6000808291508390505b600185111561202257808604811115611ffe57611ffd611b31565b5b600185161561200d5780820291505b808102905061201b85611fcb565b9450611fe2565b94509492505050565b60008261203b57600190506120f7565b8161204957600090506120f7565b816001811461205f576002811461206957612098565b60019150506120f7565b60ff84111561207b5761207a611b31565b5b8360020a91508482111561209257612091611b31565b5b506120f7565b5060208310610133831016604e8410600b84101617156120cd5782820a9050838111156120c8576120c7611b31565b5b6120f7565b6120da8484846001611fd8565b925090508184048111156120f1576120f0611b31565b5b81810290505b9392505050565b60006121098261138c565b91506121148361138c565b92506121417fffffffffffffffffffffffffffffffffffffffffffffffffffffffffffffffff848461202b565b905092915050565b600061215482611f89565b915061215f83611f89565b92508261216f5761216e611ef5565b5b828204905092915050565b600061218582611f89565b915061219083611f89565b925082820261219e81611f89565b91508082146121b0576121af611b31565b5b5092915050565b60006121c282611f89565b91506121cd83611f89565b9250828203905060ff8111156121e6576121e5611b31565b5b9291505056fea26469706673582212203581fd2a3e5175f8da3a6ad6f9e8635f0597de5bda4332f03d925bd7a138e9cd64736f6c63430008120033",
  "immutableReferences": {},
  "source": "pragma solidity ^0.8.18;\r\n\r\ncontract MusiChain{\r\n\r\n   Music[] public songs;\r\n   mapping(bytes32 => Music) songInfo;\r\n   mapping(address => User) userInfo;\r\n\r\n   event registerEvent(bytes32 songID);\r\n   event licenseEvent(bytes32 songID, address authorized);\r\n   event LogMusicID(bytes32 id);\r\n\r\n\r\n\r\n   struct Music {\r\n    bool registered;\r\n    \r\n    bytes32 ID;\r\n    string name;\r\n    string fileURL1;\r\n    uint price;\r\n    address owner;\r\n    address[] licenseHoldersList;\r\n    mapping(address => bool) licenseHolders;\r\n  }\r\n\r\n\r\n    struct User{\r\n      string name;\r\n      string password;\r\n      bool registered;\r\n      bytes32[] purchasedSongs;\r\n      string[] uploadedSongs;\r\n    }\r\n\r\n  function registerUser(string memory name, string memory password) public {\r\n    userInfo[msg.sender].registered = true;\r\n    userInfo[msg.sender].name = name;\r\n    userInfo[msg.sender].password = password;\r\n\r\n  }\r\n  function uint2str(uint _i) internal pure returns (string memory _uintAsString) {\r\n        if (_i == 0) {\r\n            return \"0\";\r\n        }\r\n        uint j = _i;\r\n        uint len;\r\n        while (j != 0) {\r\n            len++;\r\n            j /= 10;\r\n        }\r\n        bytes memory bstr = new bytes(len);\r\n        uint k = len;\r\n        while (_i != 0) {\r\n            k = k-1;\r\n            uint8 temp = (48 + uint8(_i - _i / 10 * 10));\r\n            bytes1 b1 = bytes1(temp);\r\n            bstr[k] = b1;\r\n            _i /= 10;\r\n        }\r\n        return string(bstr);\r\n    }\r\n\r\n  function toAsciiString(address x) internal pure returns (string memory) {\r\n    bytes memory s = new bytes(40);\r\n    for (uint i = 0; i < 20; i++) {\r\n        bytes1 b = bytes1(uint8(uint(uint160(x)) / (2**(8*(19 - i)))));\r\n        bytes1 hi = bytes1(uint8(b) / 16);\r\n        bytes1 lo = bytes1(uint8(b) - 16 * uint8(hi));\r\n        s[2*i] = char(hi);\r\n        s[2*i+1] = char(lo);            \r\n    }\r\n    return string(s);\r\n}\r\n\r\nfunction char(bytes1 b) internal pure returns (bytes1 c) {\r\n    if (uint8(b) < 10) return bytes1(uint8(b) + 0x30);\r\n    else return bytes1(uint8(b) + 0x57);\r\n}\r\n\r\n\r\n  function buyLicense(bytes32 songID) public payable {\r\n    uint price = songInfo[songID].price;\r\n    require(userInfo[msg.sender].registered == true,\"User is not registered!\");\r\n    require(msg.value >= price,\"Amount sent is less than required amount for the song\");\r\n    userInfo[msg.sender].purchasedSongs.push(songID);\r\n\r\n    songInfo[songID].licenseHolders[msg.sender] = true;\r\n    songInfo[songID].licenseHoldersList.push(msg.sender);\r\n    // pay the coopyright holder\r\n    payRoyalty(songID, msg.value);\r\n\r\n    emit licenseEvent(songID, msg.sender);\r\n  }\r\n\r\n\r\n  function payRoyalty(bytes32 songID, uint amount) private {\r\n    address owner = songInfo[songID].owner;\r\n    payable(owner).transfer(amount);\r\n  }\r\n\r\n\r\n  function addMusic(string memory name, string  memory URL1,uint price) public {\r\n    bytes32 songID = keccak256(abi.encodePacked(name));\r\n    songInfo[songID].owner = msg.sender;\r\n    songInfo[songID].registered = true;\r\n    songInfo[songID].ID = songID;\r\n    songInfo[songID].name = name;\r\n    songInfo[songID].price = price;\r\n    songInfo[songID].fileURL1 = URL1;\r\n    userInfo[msg.sender].uploadedSongs.push(name);\r\n    uint256 idx = songs.length;\r\n    songs.push();\r\n    Music storage d = songs[idx];\r\n    d.name = songInfo[songID].name;\r\n    d.owner = songInfo[songID].owner;\r\n    d.ID =songInfo[songID].ID;\r\n    d.price = songInfo[songID].price;\r\n    d.fileURL1 = songInfo[songID].fileURL1;\r\n    emit registerEvent(songID);\r\n  }\r\n\r\n  function getSongList() public view returns (string[] memory) {\r\n    string[] memory response = new string[](songs.length*3 +1 );\r\n    uint idx = 0;\r\n    for (uint i = 0; i < songs.length; i++) {\r\n      Music storage song = songs[i];\r\n      response[idx]= song.name;\r\n      response[idx+1]= uint2str(song.price);\r\n      response[idx+2]= toAsciiString(song.owner);\r\n      idx+=3;\r\n\r\n    }\r\n\r\n    return response;\r\n  }\r\n\r\n  function getPurchasedList() public view returns (bytes32[] memory){\r\n    return userInfo[msg.sender].purchasedSongs;\r\n  }\r\n  function getMySongs() public view returns (string[] memory){\r\n    return userInfo[msg.sender].uploadedSongs;\r\n  }\r\n}\r\n",
  "sourcePath": "C:\\Users\\Aryan\\Desktop\\Truffle_Ganache\\contracts\\MusiChain.sol",
  "compiler": {
    "name": "solc",
    "version": "0.8.18+commit.87f61d96.Emscripten.clang"
  },
  "schemaVersion": "3.4.13",
  "updatedAt": "2023-05-19T16:09:43.230Z",
  "networkType": "ethereum",
  "devdoc": {
    "kind": "dev",
    "methods": {},
    "version": 1
  },
  "userdoc": {
    "kind": "user",
    "methods": {},
    "version": 1
  }
}