{
  "contractName": "SimpleStorage",
  "abi": [
    {
      "inputs": [
        {
          "internalType": "address payable",
          "name": "to",
          "type": "address"
        }
      ],
      "name": "payableFunction",
      "outputs": [],
      "stateMutability": "payable",
      "type": "function",
      "payable": true
    },
    {
      "inputs": [
        {
          "internalType": "uint256",
          "name": "_a",
          "type": "uint256"
        }
      ],
      "name": "setter",
      "outputs": [],
      "stateMutability": "nonpayable",
      "type": "function"
    },
    {
      "inputs": [],
      "name": "getter",
      "outputs": [
        {
          "internalType": "uint256",
          "name": "",
          "type": "uint256"
        }
      ],
      "stateMutability": "view",
      "type": "function",
      "constant": true
    }
  ],
  "bytecode": "0x608060405234801561001057600080fd5b50610319806100206000396000f3fe6080604052600436106100345760003560e01c8063475b47ea14610039578063993a04b714610055578063d423740b14610080575b600080fd5b610053600480360381019061004e91906101ac565b6100a9565b005b34801561006157600080fd5b5061006a610136565b60405161007791906101f2565b60405180910390f35b34801561008c57600080fd5b506100a760048036038101906100a29190610239565b61013f565b005b600034116100ec576040517f08c379a00000000000000000000000000000000000000000000000000000000081526004016100e3906102c3565b60405180910390fd5b8073ffffffffffffffffffffffffffffffffffffffff166108fc349081150290604051600060405180830381858888f19350505050158015610132573d6000803e3d6000fd5b5050565b60008054905090565b8060008190555050565b600080fd5b600073ffffffffffffffffffffffffffffffffffffffff82169050919050565b60006101798261014e565b9050919050565b6101898161016e565b811461019457600080fd5b50565b6000813590506101a681610180565b92915050565b6000602082840312156101c2576101c1610149565b5b60006101d084828501610197565b91505092915050565b6000819050919050565b6101ec816101d9565b82525050565b600060208201905061020760008301846101e3565b92915050565b610216816101d9565b811461022157600080fd5b50565b6000813590506102338161020d565b92915050565b60006020828403121561024f5761024e610149565b5b600061025d84828501610224565b91505092915050565b600082825260208201905092915050565b7f416d6f756e74206d7573742062652067726561746572207468616e207a65726f600082015250565b60006102ad602083610266565b91506102b882610277565b602082019050919050565b600060208201905081810360008301526102dc816102a0565b905091905056fea2646970667358221220064d1d6605f26b7ffcad0afd25e36e00cdb8d04eb142c480e1a46c7aad39511564736f6c63430008130033",
  "immutableReferences": {},
  "source": "// SPDX-License-Identifier: MIT\npragma solidity >=0.5.0 <0.9.0;\n\ncontract SimpleStorage {\n    uint256 a;\n\n    function payableFunction(address payable to) external payable {\n        require(msg.value > 0, \"Amount must be greater than zero\");\n        to.transfer(msg.value);\n    }\n\n\n    function setter(uint256 _a) public {\n        a = _a;\n    }\n\n    function getter() public view returns (uint256) {\n        return a;\n    }\n}",
  "sourcePath": "/Users/aryanbarnwal/Documents/Projects/truffle_ganache/contracts/SimpleStorage.sol",
  "compiler": {
    "name": "solc",
    "version": "0.8.19+commit.7dd6d404.Emscripten.clang"
  },
  "schemaVersion": "3.4.13",
  "updatedAt": "2023-04-14T09:07:22.027Z",
  "networkType": "ethereum",
  "devdoc": {
    "kind": "dev",
    "methods": {},
    "version": 1
  },
  "userdoc": {
    "kind": "user",
    "methods": {},
    "version": 1
  }
}